:03000000020B8769
:0C0B8700787FE4F6D8FD758142020BCEA9
:100C130053544152542050524F4752414D0046497C
:100C230052535420494E505554004E455854204970
:100C33004E50555400534F5254494E472E2E2E00BA
:100C4300534F5254494E4700434F4D504C45544522
:100C530044004E554D42455220544F2042450053C7
:100C6300454152434845440054484520494E444574
:100C730058204953004E554D424552004E4F542083
:060C8300464F554E4400EF
:030DC5000108F032
:100CF100E4F5A0C282C280C2817F38FE120DA1122A
:100D01000D2B7F067E00120DA1120D2B7F0C7E0094
:100D1100120DA1120D2B120D9D120D2B7F807E0045
:030D2100020DA11F
:0B0D24007F807E00120DA17F047E0086
:100D2F00E4FDFCC3ED9FEC9E5015E4FBFA0BBB00FA
:0F0D3F00010ABA01F8BB7EF50DBD00010C80E47E
:010D4E002282
:070D9A0075900F7F017E0040
:100DA100C280C281D2828FA07F0A7E00120D2FC223
:020DB10082229C
:100DB300D280C281D2828FA07F0A7E00120D2FC201
:020DC30082228A
:060D4F007B007A00790E22
:100D55008B328A338934AB32AA33A934120C8960B9
:100D6500130534E5347002053314F9120C89FF12AA
:050D75000DB380E22235
:10080000120CF1120D2475350075360075370E7B0C
:10081000FF7A0C7913120A1E75900F120D4F7F404C
:100820007E1F120D2F120D9D753500753600753720
:100830000E7BFF7A0C7921120A1E120D4F7F407E2B
:100840001F120D2F85900953090F120D9A7535004F
:1008500075360075370E7BFF7A0C792D120A1E7FD4
:10086000E87E03120D2F75300174082530F8E6C4B8
:1008700054F0440FF5907F057E00120D2F120D4F9E
:100880007F407E1F120D2FE590540FFF7409253015
:10089000F8A607120D9A7FE87E03120D2F0530E5AA
:1008A00030D3940440C3E50DC454F0440FF5907563
:1008B000350075360075370E7BFF7A0C7938120AD1
:1008C0001E120D4F7F407E1F120D2F120D9A7FE8D2
:1008D0007E03120D2F7B007A0079097D057C0012C2
:1008E0000AF5120D2475350075360075370E7BFF3D
:1008F0007A0C7943120A1E120D4F7FC0120D267515
:10090000350075360075371F7BFF7A0C794B120A5C
:100910001E7B007A00791F120D55E4F5307409250D
:1009200030F8E6C454F0F5907F407E1F120D2FE49E
:10093000F5907FE87E03120D2F0530E530C3940457
:1009400040DB7590FF120D9D120D24753500753634
:100950000075370E7BFF7A0C7955120A1E120D4F67
:100960007FC0120D2675350075360075371F7BFF69
:100970007A0C7962120A1E7B007A00791F120D55DB
:100980007590FF7F407E1F120D2FE590540FF531BB
:10099000120D2B7F01120DA1E4F590F5307409259D
:1009A00030F8E6B53107E53004F50880070530E595
:1009B00030B405E9E50864F0703D8508907F80FE5D
:1009C000120D2875350075360075370E7BFF7A0CD1
:1009D0007978120A1E120D4F7FC0120D2675350050
:1009E00075360075371F7BFF7A0C797F120A1E7BE4
:1009F000007A00791F8022E508C454F0F590120DAA
:100A00002475350075360075370E7BFF7A0C796BCF
:0E0A1000120A1E7B007A00790E120D5580FE30
:0A0AF5008B328A3389348C358D363C
:100AFF00E4F537F538E53624FFFFE53534FFFEC35F
:100B0F00E5389FEE6480F8E5376480985069E4FF1C
:100B1F00FEC3E5369538CDE5359537CD24FFCD3479
:100B2F00FFFCC3EF9DEC6480F8EE648098503DAB02
:100B3F0032AA33A9348F828E83A3120CA2FD8F8227
:100B4F008E83120CA2FCD39D401B8C398F828E8317
:100B5F00A3120CA28F828E83120CCF8F828E83A34F
:100B6F00E539120CCF0FBF00010E80A50538E5380F
:070B7F0070830537020B042F
:010B8600224C
:060D7A008B408A41894212
:100D8000E4FFFEAB40AA41A9428F828E83120CA2DF
:090D900060070FBF00010E80EAAC
:010D99002237
:060A1E008B328A3389349B
:100A2400120D7A8E388F39C374109539FFE49538D6
:100A3400AD07FCC313F53AED13F53BC3ED953BF558
:100A44003DEC953AF53CE4F53EF53FC3E53F953B77
:100A5400E53E953A501BAB35AA36A937853F8285CA
:100A64003E837420120CCF053FE53F70DE053E80C7
:100A7400DAE4F53EF53FC3E53F9539E53E95385058
:100A840031AB32AA33A934853F82853E83120CA24E
:100A9400FFE53B253FFDE53A353EAB35AA36A937A0
:100AA4008D82F583EF120CCF053FE53F70C8053EFC
:100AB40080C4E53B2539F53FE53A3538F53EC3E5D5
:100AC4003F9410E53E9400501BAB35AA36A93785F8
:100AD4003F82853E837420120CCF053FE53F70DED4
:100AE400053E80DAAB35AA36A937900010E4020C33
:010AF400CF32
:100B9300020800E493A3F8E493A34003F68001F270
:100BA30008DFF48029E493A3F85407240CC8C33363
:100BB300C4540F4420C8834004F456800146F6DF32
:100BC300E4800B0102040810204080900DC5E47EF0
:100BD300019360BCA3FF543F30E509541FFEE49327
:100BE300A360010ECF54C025E060A840B8E493A3EE
:100BF300FAE493A3F8E493A3C8C582C8CAC583CA19
:100C0300F0A3C8C582C8CAC583CADFE9DEE780BED0
:010DC800002A
:100C8900BB010689828A83E0225002E722BBFE0269
:090C9900E32289828A83E493229C
:100CA200BB010CE58229F582E5833AF583E0225007
:100CB20006E92582F8E622BBFE06E92582F8E22251
:0D0CC200E58229F582E5833AF583E493226B
:100CCF00F8BB010DE58229F582E5833AF583E8F05B
:100CDF00225006E92582C8F622BBFE05E92582C807
:020CEF00F222EF
:00000001FF
