:03000000020A39B8
:0C0A3900787FE4F6D8FD758166020A8023
:100B9D00456E7465722050617373776F7264004394
:100BAD006F6D706172696E6700436F727265637409
:100BBD002050617373776F72640041636365737363
:100BCD00204772616E7465640057726F6E672050B6
:100BDD00617373776F72640041636365737320444F
:060BED00656E69656400FD
:100D0A000120000949313541382A4436230001219E
:100D1A000110083132334134353642373839432AE3
:090D2A003023440123610152C091
:100C3C00E4F5A0C282C280C2817F38FE120D7B7F98
:100C4C00047E00120CBF7F067E00120D7B7F047E9B
:100C5C0000120CBF7F0C7E00120D7B7F047E0012F5
:100C6C000CBF120D777F047E00120CBF7F807E00BC
:030C7C00020D7BEB
:0E0CB100120D7B7F807E00120D7B7F057E0082
:100CBF00E4FDFCC3ED9FEC9E5015E4FBFA0BBB006B
:0F0CCF00010ABA01F8BB7EF50DBD00010C80E4EF
:010CDE0022F3
:070D7400120CBF7F017E009D
:100D7B00C280C281D2828FA07F0A7E00120CBFC2BA
:020D8B008222C2
:100D8D00D280C281D2828FA07F0A7E00120CBFC298
:020D9D008222B0
:060CDF007B007A0079257C
:100CE5008B558A568957AB55AA56A957120B3560AD
:100CF500130557E5577002055614F9120B35FF1207
:050D05000D8D80E222CB
:100D3400120C3C7F807E00120D7B7F047E00120C1F
:100D4400BF1208D71209A07F107E27120D7480F1FC
:1008D700E4F5207F01FE120D7B7F807E00120D7BE9
:1008E700755800755900755A25755B207BFF7A0B83
:1008F700799D120800120CDF7F047E00120CBF7F67
:10090700C0120D7B752361E520C39408504C7FC846
:100917007E00120D7BAF23120D8D0523120C94EF71
:100927004E6007120C7FEF4E70F2120BF3120AC5DE
:1009370074182520F8A6077F0A7E00120CBFAF5255
:10094700120D7B055274182520F8E6FF120D8D7FD6
:10095700327E00120CBF052080AD7FD07E07120DBE
:10096700747F0A7E00120CBF7FC0120D7B75580082
:10097700755900755A36755B207BFF7A0B79AC1277
:1009870008007F047E00120CBF7B007A00793612C4
:090997000CE57FD07E07020CBFC5
:1009A000752101E4F52074182520F8E6FF74492527
:1009B00020F8E66F6005E4F52180070520E520B406
:1009C00008E4E5217F017E006032120CB175580009
:1009D000755900755A25755B207BFF7A0B79B61225
:1009E0000800120CDF120CBB755800755900755ABF
:1009F00036755B207BFF7A0B79C78030120CB1759E
:100A00005800755900755A25755B207BFF7A0B7964
:100A1000D6120800120CDF120CBB75580075590075
:100A2000755A36755B207BFF7A0B79E51208007BDF
:090A3000007A007936120CE5226F
:100C7F00AF23120D8D05237FC97E00120D7B7FF4EC
:050C8F007E01120CBF04
:100C940075B00F7F147E00120CBFE5B0540FF5221F
:0D0CA400B40F06120CBF7F0122E4FEFF22F8
:100BF300E5B0540FF5227F037E00120CBFE522B44B
:100C03000F087F05120CBF120BF37F2D7E00120C11
:100C1300BFE5B0540FF5227F01120CBFE522640F2C
:100C230070167F64120CBF120C94EF4E6007120C07
:090C33007FEF4E70F2120BF32268
:100AC500E52244F0F4F524B40105E4F5248017E5A6
:100AD50024B40205752401800DE524B404057524AC
:100AE500028003752403E4F548E5482404FFF874FF
:100AF50001088002C333D8FCF4F5B0120CBBE5B095
:100B0500540FF522B40F0E7F0A120CBF0548E548B5
:100B1500C3940440D4E548B40403120C94C374038D
:100B25009524FFE54825E025E024082FF8E6FF2277
:060D54008B648A658966CC
:100D5A00E4FFFEAB64AA65A9668F828E83120B4EEE
:090D6A0060070FBF00010E80EAD2
:010D7300225D
:060800008B558A56895752
:10080600120D548E5C8F5DC37410955DFFE4955C8C
:10081600AD07FCC313F55EED13F55FC3ED955FF50C
:1008260061EC955EF560E4F562F563C3E563955F9B
:10083600E562955E501BAB58AA59A95A8563828515
:100846006283E55B120B7B0563E56370DE05628000
:10085600DAE4F562F563C3E563955DE562955C50A0
:1008660031AB55AA56A957856382856283120B4E12
:10087600FFE55F2563FDE55E3562AB58AA59A95AC7
:100886008D82F583EF120B7B0563E56370C8056205
:1008960080C4E55F255DF563E55E355CF562C3E51D
:1008A600639410E5629400501BAB58AA59A95A8567
:1008B6006382856283E55B120B7B0563E56370DE0D
:1008C600056280DAAB58AA59A95A900010E4020BC7
:0108D6007BA6
:100A4500020D34E493A3F8E493A34003F68001F286
:100A550008DFF48029E493A3F85407240CC8C333B2
:100A6500C4540F4420C8834004F456800146F6DF81
:100A7500E4800B0102040810204080900D0AE47EFA
:100A8500019360BCA3FF543F30E509541FFEE49376
:100A9500A360010ECF54C025E060A840B8E493A33D
:100AA500FAE493A3F8E493A3C8C582C8CAC583CA68
:100AB500F0A3C8C582C8CAC583CADFE9DEE780BE20
:010D330000BF
:100B3500BB010689828A83E0225002E722BBFE02BE
:090B4500E32289828A83E49322F1
:100B4E00BB010CE58229F582E5833AF583E022505C
:100B5E0006E92582F8E622BBFE06E92582F8E222A6
:0D0B6E00E58229F582E5833AF583E49322C0
:100B7B00F8BB010DE58229F582E5833AF583E8F0B0
:100B8B00225006E92582C8F622BBFE05E92582C85C
:020B9B00F22244
:00000001FF
