:03000000020040BB
:1000400075900FD294311FC294E4E590F5717570EC
:10005000F7757205E5718572F0118C8573508574A2
:100060005111D8F57375900FE57354F0F590311F69
:1000700075900031143114E573540FC475900FF569
:1000800090311F7590003114311480D9757300F5CB
:1000900074F57515F0AFF0119CDFFC22E5748575E1
:1000A000F0A485F060F561E5738575F0A4F56275DF
:1000B000630011B522AB60AC61AD62AE63EC2EF5AE
:1000C00074EB3DF57322AB60AC61AD62AE63ECC323
:1000D0009EF566EB9DF565228573F0E574A8708545
:1000E000F060F561756200886311C685656085669C
:1000F00061E565B400F3E5669850EEE566F57322B8
:10010000C00078FAD8FED00022C00078283100D88C
:10011000FCD00022C00078643109D8FCD00022C095
:0A0120000078053114D8FCD000224D
:00000001FF
