:03000000020A11E0
:0C0A1100787FE4F6D8FD758166020A5873
:100BCC00456E7465722050617373776F7264004365
:100BDC006F6D706172696E6700436F7272656374DA
:100BEC002050617373776F72640041636365737334
:100BFC00204772616E7465640057726F6E67205087
:100C0C00617373776F72640041636365737320441F
:060C1C00656E69656400CD
:100CBE000120000949313541382A443623000121EB
:100CCE000110083132334134353642373839432A30
:090CDE003023440123610152C0DE
:100C2200E4F5A0C282C280C2817F38FE120D4C7FE1
:100C3200047E00120C737F067E00120D4C7F047E30
:100C420000120C737F0C7E00120D4C7F047E00128A
:100C52000C73120D487F047E00120C737F807E009D
:030C6200020D4C34
:0E0C6500120D4C7F807E00120D4C7F057E002C
:100C7300E4FDFCC3ED9FEC9E5015E4FBFA0BBB00B7
:0F0C8300010ABA01F8BB7EF50DBD00010C80E43B
:010C9200223F
:040D48007F017E00A9
:100D4C00C280C281D2828FA07F0A7E00120C73C235
:020D5C008222F1
:100D5E00D280C281D2828FA07F0A7E00120C73C213
:020D6E008222DF
:060C93007B007A007925C8
:100C99008B558A568957AB55AA56A957120B0D6021
:100CA900130557E5577002055614F9120B0DFF127B
:050CB9000D5E80E22247
:100CE800120C227F807E00120D4C7F047E00120CB5
:100CF800731208D71209787F107E27120C73120D11
:030D08004880EE32
:1008D700E4F5207F01FE120D4C7F807E00120D4C47
:1008E700755800755900755A25755B207BFF7A0B83
:1008F70079CC120800120C937FC07E00120D4CE5D4
:1009070020C39408503E7FC87E00120D4C120D2B59
:10091700EF4E600C7FC9120C6A120D2BEF4E70ED73
:10092700120B75120A9D74182520F8A607AF527E80
:1009370000120D4C055274182520F8E6FF120D5EC3
:10094700052080BB120D487F0A7E00120C737FC002
:10095700120D4C755800755900755A36755B207B1A
:10096700FF7A0B79DB1208007B007A007936020CDC
:0109770099E6
:10097800752101E4F52074182520F8E6FF7449254F
:1009880020F8E66F6005E4F52180070520E520B42E
:1009980008E4E5217F017E006032120C657558007D
:1009A800755900755A25755B207BFF7A0B79E5121E
:1009B8000800120C93120C6F755800755900755A7F
:1009C80036755B207BFF7A0B79F68030120C6575E3
:1009D8005800755900755A25755B207BFF7A0C798C
:1009E80005120800120C93120C6F75580075590007
:1009F800755A36755B207BFF7A0C79141208007BD8
:090A0800007A007936120C9922E3
:100D2B0075B00F7F147E00120C73E5B0540FF522D3
:0D0D3B00B40F06120C737F0122E4FEFF22AC
:100B7500E5B0540FF5227F037E00120C73E522B415
:100B85000F087F05120C73120B757FC87E00120CBF
:100B950073E5B0540FF5227F01120C73E522640F43
:100BA50070247F64120C73120D2BEF4E60157FC9F4
:100BB5007E00120D4C7FF47E01120C73120D2BEF8B
:070BC5004E70E4120B7522D3
:100A9D00E52244F0F4F524B40105E4F5248017E5CE
:100AAD0024B40205752401800DE524B404057524D4
:100ABD00028003752403E4F548E5482404FFF87427
:100ACD0001088002C333D8FCF4F5B0120C6FE5B009
:100ADD00540FF522B40F0E7F0A120C730548E5482A
:100AED00C3940440D4E548B40403120D2BC374031E
:100AFD009524FFE54825E025E024082FF8E6FF22A0
:060D0B008B648A65896615
:100D1100E4FFFEAB64AA65A9668F828E83120B265F
:090D210060070FBF00010E80EA1B
:010D2A0022A6
:060800008B558A56895752
:10080600120D0B8E5C8F5DC37410955DFFE4955CD5
:10081600AD07FCC313F55EED13F55FC3ED955FF50C
:1008260061EC955EF560E4F562F563C3E563955F9B
:10083600E562955E501BAB58AA59A95A8563828515
:100846006283E55B120B530563E56370DE05628028
:10085600DAE4F562F563C3E563955DE562955C50A0
:1008660031AB55AA56A957856382856283120B263A
:10087600FFE55F2563FDE55E3562AB58AA59A95AC7
:100886008D82F583EF120B530563E56370C805622D
:1008960080C4E55F255DF563E55E355CF562C3E51D
:1008A600639410E5629400501BAB58AA59A95A8567
:1008B6006382856283E55B120B530563E56370DE35
:1008C600056280DAAB58AA59A95A900010E4020BC7
:0108D60053CE
:100A1D00020CE8E493A3F8E493A34003F68001F2FB
:100A2D0008DFF48029E493A3F85407240CC8C333DA
:100A3D00C4540F4420C8834004F456800146F6DFA9
:100A4D00E4800B0102040810204080900CBEE47E6F
:100A5D00019360BCA3FF543F30E509541FFEE4939E
:100A6D00A360010ECF54C025E060A840B8E493A365
:100A7D00FAE493A3F8E493A3C8C582C8CAC583CA90
:100A8D00F0A3C8C582C8CAC583CADFE9DEE780BE48
:010CE700000C
:100B0D00BB010689828A83E0225002E722BBFE02E6
:090B1D00E32289828A83E4932219
:100B2600BB010CE58229F582E5833AF583E0225084
:100B360006E92582F8E622BBFE06E92582F8E222CE
:0D0B4600E58229F582E5833AF583E49322E8
:100B5300F8BB010DE58229F582E5833AF583E8F0D8
:100B6300225006E92582C8F622BBFE05E92582C884
:020B7300F2226C
:00000001FF
