:03000000020100FA
:10010000740FF59075900FE590540FB40132B287DB
:10011000318F318F318F318F318F318F318F319AD4
:10012000319A319A319AB287318F318F318F318F35
:10013000318F318F318F319A319A319A319A21042E
:10014000B40316B2877D22319ADDFC31A3B2877DDC
:1001500022319ADDFC31A32104B40712B2877D1F3E
:10016000319ADDFCB2877D1F319ADDFC2104B40F8A
:1001700093B2877D1D319ADDFCB2877D1D319ADDFA
:10018000FC210422C0007804318FD8FCD00022C0AA
:10019000007805319AD8FCD00022C000782BD8FE18
:0C01A000D00022C0007816D8F5D0002254
:00000001FF
