:0300000002101AD1
:0C101A00787FE4F6D8FD75817B02106140
:101126000A0800000000000000000000084C000053
:06113600000000000000B3
:1010A600E4F5A0C282C280C2817F38FE12113D12D1
:1010B60011027F067E0012113D1211027F0C7E0086
:1010C60012113D1211027F017E0012113D12110212
:0710D6007F807E0002113D46
:041102007F047E00E8
:10110600E4FDFCC3ED9FEC9E5015E4FBFA0BBB001F
:0F111600010ABA01F8BB7EF50DBD00010C80E4A3
:0111250022A7
:100F74008E748F758B768A7789787C277D10120D15
:100F8400F4EF2430120DC0AE74AF757C277D1012BF
:100F94000DF47E037FE8CFCDCFCECCCE120DF4EF8F
:100FA4002430AB76AA77A978900001120DD2AE74E2
:100FB400AF757C037DE8120DF47E007F64CFCDCF46
:100FC400CECCCE120DF4EF2430AB76AA77A978906C
:100FD4000002120DD2AE74AF757C007D64120DF464
:100FE4007E007F0ACFCDCFCECCCE120DF4EF2430CD
:100FF400AB76AA77A978900003120DD2AE74AF75C0
:101004007C007D0A120DF4ED2430AB76AA77A97822
:06101400900004020DD261
:10113D00C280C281D2828FA07F0A7E00121106C2A8
:02114D008222FC
:10114F00D280C281D2828FA07F0A7E00121106C286
:02115F008222EA
:1010DD008B798A7A897BAB79AA7AA97B120DA76065
:1010ED0013057BE57B7002057A14F9120DA7FF122B
:0510FD00114F80E2220A
:100800001210A6758910E4F58BF58DD28E7521B581
:10081000752025F51FF51E7525197524ABF523F5F3
:10082000227B0AFAF9F8AF21AE20AD1FAC1E120EE2
:10083000D48F5B8E5A8D598C58E47B0AFAF9F8AF45
:1008400021AE20AD1FAC1E120ED4AC00AD01AE0225
:10085000AF038F578E568D558C54E47B0AFAF9F806
:10086000AF25AE24AD23AC22120ED48F638E628DE1
:10087000618C60E47B0AFAF9F8AF25AE24AD23ACB5
:1008800022120ED4AC00AD01AE02AF038F5F8E5EBC
:100890008D5D8C5CAB57AA56A955A854120E498F92
:1008A000678E668D658C64AF63AE62AD61AC60AB24
:1008B00057AA56A955A854120E498F6B8E6A8D6996
:1008C0008C68AF5FAE5EAD5DAC5CAB5BAA5AA959FC
:1008D000A858120E498F6F8E6E8D6D8C6CAF63AE03
:1008E00062AD61AC60AB5BAA5AA959A858120E4917
:1008F0008F738E728D718C70E56B256FFFE56A3595
:100900006EFEE569356DFDE568356CFCE47B0AFA41
:10091000F9F8120E49EF2567FFEE3566FEED3565F5
:10092000FDEC3564FCC004C005C006C007E47F646C
:10093000FEFDFCAB73AA72A971A870120E49D00318
:10094000D002D001D000EF2BF51DEE3AF51CED39A9
:10095000F51BEC38F51AC28EAF8BE48F15F514F544
:1009600013F512AF8D8F19F518F517F516FF7E01E7
:10097000FDFCAB19AA18A917A816120E49EF2515E8
:10098000FFEE3514FEED3513FDEC3512FCE4120CD0
:10099000E8E4FBFAF97840120C4B120D268F298EF1
:1009A000288D278C26E47B0AFAF9F8AF1DAE1CAD22
:1009B0001BAC1A120ED4EB2430F510AF1DAE1CADDB
:1009C0001BAC1AE47B0AFAF9F8120ED48F1D8E1CA8
:1009D0008D1B8C1AE47B0AFAF9F8120ED4EB243042
:1009E000F50FAF1DAE1CAD1BAC1AE47B0AFAF9F88B
:1009F000120ED48F1D8E1C8D1B8C1AE47B0AFAF903
:100A0000F8120ED4EB2430F50EAF1DAE1CAD1BACAE
:100A10001AE47B0AFAF9F8120ED48F1D8E1C8D1B76
:100A20008C1AE47B0AFAF9F8120ED4EB2430F50D97
:100A3000AF1DAE1CAD1BAC1AE47B0AFAF9F8120E1E
:100A4000D48F1D8E1C8D1B8C1AE47B0AFAF9F812C8
:100A50000ED4EB2430F50CAF1DAE1CAD1BAC1AE46C
:100A60007B0AFAF9F8120ED48F1D8E1C8D1B8C1A7E
:100A7000E47B0AFAF9F8120ED4EB2430F50BAF1D23
:100A8000AE1CAD1BAC1AE47B0AFAF9F8120ED48F37
:100A90001D8E1C8D1B8C1AE47B0AFAF9F8120ED4F9
:100AA000EB2430F50AAF1DAE1CAD1BAC1AE47B0A7B
:100AB000FAF9F8120ED48F1D8E1C8D1B8C1AE47B54
:100AC0000AFAF9F8120ED4EB2430F509AF1DAE1C6A
:100AD000AD1BAC1AE47B0AFAF9F8120ED48F1D8E06
:100AE0001C8D1B8C1AE47B0AFAF9F8120ED4EB2445
:100AF00030F508AF1DAE1CAD1BAC1AE47B0AFAF949
:100B0000F8120ED48F1D8E1C8D1B8C1AE4F51175F6
:100B10002A50752B72752C6F752D64752E3DF52F2F
:100B20007F80FE12113D7B007A00792A1210DD7F52
:100B3000867E0012113D7B007A0079081210DD7567
:100B40003B54753C69753D6D753E65753F3175402B
:100B50003DE4F541755175755273F5537B0AFAF909
:100B6000F8AF29AE28AD27AC26120ED4EB2430F511
:100B700050AF29AE28AD27AC26E47B0AFAF9F8126B
:100B80000ED48F298E288D278C26E47B0AFAF9F85B
:100B9000120ED4EB2430F54FAF29AE28AD27AC268A
:100BA000E47B0AFAF9F8120ED48F298E288D278C4F
:100BB00026E47B0AFAF9F8120ED4EB2430F54EAF96
:100BC00029AE28AD27AC26E47B0AFAF9F8120ED438
:100BD0008F298E288D278C26E47B0AFAF9F8120ECD
:100BE000D4EB2430F54DAF29AE28AD27AC26E47BFD
:100BF0000AFAF9F8120ED48F298E288D278C26E454
:100C00007B0AFAF9F8120ED4EB2430F54CAF29AE7A
:100C100028AD27AC26E47B0AFAF9F8120ED48F2906
:100C20008E288D278C267FC07E0012113D7B007A96
:100C300000793B1210DD7FC67E0012113D7B007AE9
:080C400000794C1210DD80FE6A
:100C4800020D9CEC5D046005E859047003020D92E6
:100C5800120D5D580460F6EC4860F2EC7004FDFE7D
:100C6800FF22C860DB2481C85009C398600250067F
:100C7800020D999850CAF582E9294B4A7005AB8252
:100C8800020D8875F0007C1A7880C3EF9BEE9AED10
:100C980099400DC3EF9BFFEE9AFEED99FDE842F0F7
:100CA800DC23ACF0D0E0FFD0E0FED0E0FDAB82204A
:100CB800E7101BEB60BAEC2CFCEF33FFEE33FEEDD4
:100CC80033FD020D74E803F830E705C0F075F00055
:100CD800EF2FFFEE33FEED33FD40B830E7C280AAB8
:100CE80075F020800E75F010800575F0087D007E87
:100CF800007F003392D530D503120F66EC334010D5
:100D0800EF33FFEE33FEED33FDEC33FCD5F0ED228F
:0E0D1800E5F0247EA2D513CC92E7CDCEFF22CB
:100D2600EDD2E7CD33EC3392D524814006E4FFFEC5
:100D3600FDFC22FCE4CFCECDCC24E0501174FF8024
:100D4600EDC3CC13CCCD13CDCE13CECF13CF0470C1
:070D5600F030D5DE020F664C
:100D5D00E9D2E7C933E833F892D5EDD2E7CD33ECDC
:070D6D0033FC5002B2D52255
:100D7400EC30E7100FBF000C0EBE00080DBD0004E0
:100D84000BEB6014A2D5EB13FCED92E7FD2274FF8C
:100D9400FCFDFEFF22E480F8A2D574FF13FC7D80E5
:030DA400E480EFF9
:10102600020800E493A3F8E493A34003F68001F2D8
:1010360008DFF48029E493A3F85407240CC8C333CB
:10104600C4540F4420C8834004F456800146F6DF9A
:10105600E4800B0102040810204080901126E47EF3
:10106600019360BCA3FF543F30E509541FFEE4938F
:10107600A360010ECF54C025E060A840B8E493A356
:10108600FAE493A3F8E493A3C8C582C8CAC583CA81
:10109600F0A3C8C582C8CAC583CADFE9DEE780BE39
:01113C0000B2
:100DA700BB010689828A83E0225002E722BBFE024A
:090DB700E32289828A83E493227D
:100DC000BB010689828A83F0225002F722BBFE0112
:020DD000F3220C
:100DD200F8BB010DE58229F582E5833AF583E8F057
:100DE200225006E92582C8F622BBFE05E92582C803
:020DF200F222EB
:100DF400BC000BBE0029EF8DF084FFADF022E4CCE3
:100E0400F875F008EF2FFFEE33FEEC33FCEE9DECAB
:100E1400984005FCEE9DFE0FD5F0E9E4CEFD22EDF1
:100E2400F8F5F0EE8420D21CFEADF075F008EF2F3B
:100E3400FFED33FD4007985006D5F0F222C398FD2C
:050E44000FD5F0EA22C9
:100E4900E88FF0A4CC8BF0A42CFCE98EF0A42CFC48
:100E59008AF0EDA42CFCEA8EF0A4CDA8F08BF0A4C6
:100E69002DCC3825F0FDE98FF0A42CCD35F0FCEB25
:100E79008EF0A4FEA9F0EB8FF0A4CFC5F02ECD39EA
:0F0E8900FEE43CFCEAA42DCE35F0FDE43CFC2257
:100E980075F008758200EF2FFFEE33FECD33CDCC11
:100EA80033CCC58233C5829BED9AEC99E582984094
:100EB8000CF582EE9BFEED9AFDEC99FC0FD5F0D671
:100EC800E4CEFBE4CDFAE4CCF9A88222B800C1B99B
:100ED8000059BA002DEC8BF084CFCECDFCE5F0CBD9
:100EE800F97818EF2FFFEE33FEED33FDEC33FCEB12
:100EF80033FB10D703994004EB99FB0FD8E5E4F9CD
:100F0800FA227818EF2FFFEE33FEED33FDEC33FCB9
:100F1800C933C910D7059BE99A4007EC9BFCE99AAD
:100F2800F90FD8E0E4C9FAE4CCFB2275F010EF2FF2
:100F3800FFEE33FEED33FDCC33CCC833C810D707F2
:100F48009BEC9AE899400AED9BFDEC9AFCE899F82D
:0E0F58000FD5F0DAE4CDFBE4CCFAE4C8F922C0
:0E0F6600C3E49FFFE49EFEE49DFDE49CFC229C
:00000001FF
