:03000000020100FA
:100100007571AD7570D831303174314431CA80FEAB
:10013000E5748575F0A4F574AFF0E5738575F0A4EA
:100140002FF57322740FF59078737C017E01EEC455
:100150000E240FF5901201E6E590540FFAEEC40E4E
:10016000240FF5901201E6E590540FFBEAC44BF61C
:1001700008DCDB227570F7E5748570F08485F07417
:1001800074FF8570F08405F0ABF0E5738570F08442
:10019000ACF0EB8CF0A48570F084E5F02574F57379
:1001A000227A01E5718570F084E5F0AFF0BF0103BC
:1001B0008A7222C32571500DFE74FF8570F0C395BD
:1001C000F0FD0DEE2D0A1201A522E57254F0F59016
:1001D00031E675900031F1E572540FC4F59031E6C7
:1001E00075900031F122C000781931FCD8FCD000A4
:1001F00022C000780531FCD8FCD00022C00078C8AD
:100200005107D8FCD00022C00078045112D8FCD08D
:0B0210000022C00078F4D8FED00022CD
:00000001FF
