:03000000020B41AF
:0C0B4100787FE4F6D8FD758127020B8850
:0C0DAD00566F6C742E3A2000206D56002A
:0A0DB900C100062100000000000048
:100CE700E4F5A0C282C280C2817F38FE120D7D1258
:100CF7000D437F067E00120D7D120D437F0C7E0093
:100D0700120D7D120D437F017E00120D7D120D43E2
:070D17007F807E00020D7DCC
:040D43007F047E00AB
:100D4700E4FDFCC3ED9FEC9E5015E4FBFA0BBB00E2
:0F0D5700010ABA01F8BB7EF50DBD00010C80E466
:010D6600226A
:100A9B008E0E8F0F8B108A1189127C277D10120AF4
:100AAB0012EF24301209DEAE0EAF0F7C277D101231
:100ABB000A127E037FE8CFCDCFCECCCE120A12EF37
:100ACB002430AB10AA11A9129000011209F0AE0E3E
:100ADB00AF0F7C037DE8120A127E007F64CFCDCF6F
:100AEB00CECCCE120A12EF2430AB10AA11A9129061
:100AFB0000021209F0AE0EAF0F7C007D64120A12D9
:100B0B007E007F0ACFCDCFCECCCE120A12EF24308F
:100B1B00AB10AA11A9129000031209F0AE0EAF0F81
:100B2B007C007D0A120A12ED2430AB10AA11A91217
:060B3B009000040209F025
:100D7D00C280C281D2828FA07F0A7E00120D47C22F
:020D8D008222C0
:100D8F00D280C281D2828FA07F0A7E00120D47C20D
:020D9F008222AE
:100D1E008B0E8A0F8910AB0EAA0FA9101209C5608F
:100D2E00130510E5107002050F14F91209C5FF1214
:050D3E000D8F80E22290
:0C0DA10075C33F43B104D2AF43C34022EE
:080C32008F1D8E1C8D1B8C1A16
:100C3A00C2007810120A75E48FC53000FDA927C2D8
:100C4A0000AF1DAE1CAD1BAC1A7808120A758FC511
:100C5A003000FDAB27C200E51DFF8FC53000FDAD9A
:100C6A0027EB7B00FA7E00E97810C333CE33CED867
:100C7A00F92BFFEE3AFE7C00EF2DFFEC3EFE33959A
:030C8A00E0FDFC8E
:010C8D002244
:03004B00020D673C
:100D6700C0E0C0D0E5C454F02480700585C527D203
:060D770000D0D0D0E032F4
:030DC400D29422A4
:020BCD00AB0774
:100BCF00E4F515F514751301F512EF75F010A47E09
:100BDF00005470FFEE3395E0FDFCEF4480FFED789D
:100BEF0008120A888F198E188D178C16E51525197E
:100BFF00FFE5143518FEE5133517FDE5123516FC24
:100C0F00C294120C328F118E108D0F8C0ED294E570
:100C1F0011F511E5105403F510E4F50FF50EAE10B4
:020C2F00AF1103
:010C310022A0
:100C8E00E4F508F509F50AF50B120DA1120DC412C3
:020C9E000CE761
:100CA0007F04120BCD8E0C8F0DAC0CAD0DE4120930
:100CB0000B7B827A73794E78401208001209448EB9
:100CC0000A8F0B7B007A007921120A9B7FC07E007D
:100CD000120D7D7B007A007921120D1E7BFF7A0DAB
:050CE00079B5120D1EA4
:020CE50080B9D4
:10080000EC4D6011E8497017ED33EC3304600DE4F2
:10081000FCFFFEFD22E933E8330470F80209B01250
:10082000097B58046009E4CC248150062850090251
:1008300009BA2840030209B7C0E0EB4A7044B98006
:1008400006D0E0FB0209A6EF4E701CBD8008EBFF4E
:10085000EAFEE9FD80EBE98DF0A4FEE5F00208E98F
:10086000E9CDF9EAFEEBFFEF89F0A4FCE5F0CE89D3
:10087000F0A42EFFE435F0CD89F0A42DFEE435F090
:100880008067EF4E7005BD80D780C3EF8BF0A4ACBE
:10089000F0EE8BF0A42CFCE435F0F8EF8AF0A42CF9
:1008A000E5F038FCE433CB8DF0A42CFCE5F03BF80C
:1008B000EE8AF0A42CFCE5F038F8E433CF89F0A4FC
:1008C0002CFCE5F038CF3400CE89F0A42FFFE5F002
:1008D0003EFEE433C98DF0A42EFEE5F039CD8AF05A
:1008E000A42FFFE5F03EFEE43DFD33D0E0FB5007D2
:1008F0000BBB000F0209BAEC2CFCEF33FFEE33FE0A
:06090000ED33FD02099237
:1009060075F020800E75F010800575F0087D007E6C
:10091600007F003392D530D503120A67EC334010BE
:10092600EF33FFEE33FEED33FDEC33FCD5F0ED2275
:0E093600E5F0247EA2D513CC92E7CDCEFF22B1
:10094400EDD2E7CD33EC3392D524814006E4FFFEAB
:10095400FDFC22FCE4CFCECDCC24E0501174FF800A
:10096400EDC3CC13CCCD13CDCE13CECF13CF0470A7
:07097400F030D5DE020A6736
:10097B00E9D2E7C933E833F892D5EDD2E7CD33ECC2
:07098B0033FC5002B2D5223B
:10099200EC30E7100FBF000C0EBE00080DBD0004C6
:1009A2000BEB6014A2D5EB13FCED92E7FD2274FF72
:1009B200FCFDFEFF22E480F8A2D574FF13FC7D80CB
:0309C200E480EFDF
:100B4D00020C8EE493A3F8E493A34003F68001F224
:100B5D0008DFF48029E493A3F85407240CC8C333A9
:100B6D00C4540F4420C8834004F456800146F6DF78
:100B7D00E4800B0102040810204080900DB9E47E42
:100B8D00019360BCA3FF543F30E509541FFEE4936D
:100B9D00A360010ECF54C025E060A840B8E493A334
:100BAD00FAE493A3F8E493A3C8C582C8CAC583CA5F
:100BBD00F0A3C8C582C8CAC583CADFE9DEE780BE17
:010DC300002F
:1009C500BB010689828A83E0225002E722BBFE0230
:0909D500E32289828A83E4932263
:1009DE00BB010689828A83F0225002F722BBFE01F8
:0209EE00F322F2
:1009F000F8BB010DE58229F582E5833AF583E8F03D
:100A0000225006E92582C8F622BBFE05E92582C8E8
:020A1000F222D0
:100A1200BC000BBE0029EF8DF084FFADF022E4CCC8
:100A2200F875F008EF2FFFEE33FEEC33FCEE9DEC91
:100A3200984005FCEE9DFE0FD5F0E9E4CEFD22EDD7
:100A4200F8F5F0EE8420D21CFEADF075F008EF2F21
:100A5200FFED33FD4007985006D5F0F222C398FD12
:050A62000FD5F0EA22AF
:0E0A6700C3E49FFFE49EFEE49DFDE49CFC22A0
:100A7500E8600FECC313FCED13FDEE13FEEF13FF5F
:030A8500D8F12283
:100A8800E8600FEFC333FFEE33FEED33FDEC33FCCC
:030A9800D8F12270
:00000001FF
