:03000000020A37BA
:0C0A3700787FE4F6D8FD758143020A7E4A
:100B7400020A0000022E00000208000005300000F6
:030B84000000006E
:100AC300E4F5A0C282C280C2817F38FE120B881275
:100AD3000B017F067E00120B88120B017F0C7E0038
:100AE300120B88120B017F017E00120B88120B017F
:070AF3007F807E00020B88EA
:0B0AFA007F807E00120B887F047E00CE
:100B0500E4FDFCC3ED9FEC9E5015E4FBFA0BBB0026
:0F0B1500010ABA01F8BB7EF50DBD00010C80E4AA
:010B240022AE
:100B8800C280C281D2828FA07F0A7E00120B05C26A
:020B98008222B7
:100B9A00D280C281D2828FA07F0A7E00120B05C248
:020BAA008222A5
:100B25008B358A368937AB35AA36A9371208D7608F
:100B3500130537E5377002053614F91208D7FF1289
:050B45000B9A80E22282
:03000B00020B4A9B
:100B4A00C0E0050BE50B7002050A758AC4758CFFB7
:050B5A00D28CD0E03256
:10099400120AFAD2B4D2902090097F017E00120B81
:1009A4000580F475890575A882758AC4758CFFD293
:1009B4008C2090FDAE0AAF0B7C007D3C12093F8E6B
:1009C400088F09AE0AAF0B7C007D3C12093F8C2EC8
:1009D4008D2F75323AAE08AF097C007D0A12093FAB
:1009E400EF2430F530AE08AF097C007D0A12093FD0
:1009F400ED2430F531AE2EAF2F7C007D0A12093F75
:100A0400EF2430F533AE2EAF2F7C007D0A12093F60
:100A1400ED2430F534753800753900753A0C753BA2
:100A2400207B007A0079301208007B007A00790C70
:030A3400020B258D
:0B0BAC00120AC3120AFA12099480FB1F
:060800008B358A368937B2
:10080600120B5F8E3C8F3DC37410953DFFE4953C03
:10081600AD07FCC313F53EED13F53FC3ED953FF56C
:1008260041EC953EF540E4F542F543C3E543953F7B
:10083600E542953E501BAB38AA39A93A85438285D5
:100846004283E53B12091D0543E54370DE05428000
:10085600DAE4F542F543C3E543953DE542953C5060
:1008660031AB35AA36A9378543828542831208F013
:10087600FFE53F2543FDE53E3542AB38AA39A93AA7
:100886008D82F583EF12091D0543E54370C80542C5
:1008960080C4E53F253DF543E53E353CF542C3E5DD
:1008A600439410E5429400501BAB38AA39A93A8507
:1008B6004382854283E53B12091D0543E54370DE0D
:1008C600054280DAAB38AA39A93A900010E4020949
:0108D6001D04
:100A4300020BACE493A3F8E493A34003F68001F212
:100A530008DFF48029E493A3F85407240CC8C333B4
:100A6300C4540F4420C8834004F456800146F6DF83
:100A7300E4800B0102040810204080900B74E47E94
:100A8300019360BCA3FF543F30E509541FFEE49378
:100A9300A360010ECF54C025E060A840B8E493A33F
:100AA300FAE493A3F8E493A3C8C582C8CAC583CA6A
:100AB300F0A3C8C582C8CAC583CADFE9DEE780BE22
:010B8700006D
:1008D700BB010689828A83E0225002E722BBFE021F
:0908E700E32289828A83E4932252
:1008F000BB010CE58229F582E5833AF583E02250BD
:1009000006E92582F8E622BBFE06E92582F8E22206
:0D091000E58229F582E5833AF583E4932220
:10091D00F8BB010DE58229F582E5833AF583E8F010
:10092D00225006E92582C8F622BBFE05E92582C8BC
:02093D00F222A4
:10093F00BC000BBE0029EF8DF084FFADF022E4CC9C
:10094F00F875F008EF2FFFEE33FEEC33FCEE9DEC65
:10095F00984005FCEE9DFE0FD5F0E9E4CEFD22EDAB
:10096F00F8F5F0EE8420D21CFEADF075F008EF2FF5
:10097F00FFED33FD4007985006D5F0F222C398FDE6
:05098F000FD5F0EA2283
:100B5F00E4FFFE1208D7600C0FEF70010E09E97069
:050B6F00F20A80EF22F4
:00000001FF
