:03000000020100FA
:0C0100007571AD7570D83130315980FE3A
:100130007A01E5718570F084E5F0AFF0BF01038AC4
:100140007222C32571500DFE74FF8570F0C395F0C7
:10015000FD0DEE2D0A12013422E57254F0F59031B6
:10016000757590003180E572540FC4F59031757546
:100170009000318022C0007819318BD8FCD0002249
:10018000C0007805318BD8FCD00022C00078C8317F
:1001900096D8FCD00022C000780431A1D8FCD00051
:0A01A00022C00078F4D8FED000223F
:00000001FF
