:03000000020100FA
:080100003159318F31BA80FE44
:10013000C0037B14313CDBFCD0033150C0027AFA9F
:100140003146DAFCD002C00179043150D9FCD0012B
:10015000C00078B9D8FED00022740FF59078607C8A
:10016000047E01EEC40E240FF5901201301201300E
:10017000E590540FFAEEC40E240FF59012013012E0
:100180000130E590540FFBEAC44BF608DCD5227D24
:10019000057C047860E6C3941E500CE675F00A8472
:1001A00075F00AA42D80027423F608DCE8786079E3
:1001B000707E04E6F70809DEFA227C047870C294A7
:1001C000C295C296C29775F00AE684600B14600D62
:1001D00014600FD2970201E4D2940201E4D2950296
:0E01E00001E4D29608120130DCD41201BA22DA
:00000001FF
